:020000040800F2
:1000000030080020A101000825470008D73A000861
:1000100000000000000000000000000000000000E0
:10002000000000000000000000000000B54C0008C7
:100030000000000000000000134A0008B74C000850
:10004000B301000800000000B3010008B30100087C
:10005000154A0008B3010008B3010008AD1F0008ED
:1000600000000000B3010008B3010008B30100085C
:10007000B3010008B3010008B3010008000000004C
:10008000B30100080000000000000000B3010008F8
:1000900000000000B3010008B3010008D93A0008CD
:1000A000B3010008B3010008B3010008B301000860
:1000B000B301000800000000000000000000000084
:1000C00000F002F800F05DF80CA030C808382418E1
:1000D0002D18A246671EAB4654465D46AC4201D180
:1000E00000F04FF87E460F3E0FCCB6460126334255
:1000F00000D0FB1AA246AB4633431847FC6400000D
:100100001C650000103A02D378C878C1FAD85207AB
:1001100001D330C830C101D504680C6070470000BD
:100120000023002400250026103A01D378C1FBD813
:10013000520700D330C100D50B60704710B5662957
:1001400002D105F0F7FA10BD692902D100F094F848
:1001500010BD642902D100F08FF810BD632902D1CF
:1001600000F0CCFE10BD002010BD1FB501F00AF953
:1001700004000020002105F009FAE0601FBD10B561
:1001800010BD01F0FDFC1146FFF7EFFF05F05EF832
:1001900001F015FD03B4FFF7F2FF03BC01F0AEFD63
:1001A0000748804707480047FEE7FEE7FEE7FEE70F
:1001B000FEE7FEE704480549054A064B7047000084
:1001C000314D0008C1000008300200203008002036
:1001D00030040020300400200FB41CB5074B06AAE1
:1001E0007B4469460090059800F065FE0020694652
:1001F00000F074FE1CBC08BC04B01847F90C0000E9
:1002000009684A0501D540B27047C905FCD500B25E
:10021000704709684A0501D5C0B27047C905FCD5C9
:1002200080B2704770B50C460546012A05D0287883
:10023000800600D5EA69002302E0012305E05B1C8B
:10024000934202D2E05C0028F9D1A869E618C01AEE
:10025000A861286AC01828622846C046C04604E043
:100260006A682078A968641C9047B442F8D328468D
:10027000C046C04670BD0000F7B50025752910685E
:10028000009914A611D0FFF7BBFF002802DA404204
:1002900011A608E0009909688A0701D50FA602E0B7
:1002A000490704D50EA6012501E0FFF7B2FF009F24
:1002B0000024243704E000F02DFE30313955641C51
:1002C0000028F8D12B4632462146009800F089FBE1
:1002D000FEBD0000000000002D0000002B0000000B
:1002E00020000000F3B50446002081B020622046C3
:1002F000E1688847002872D0252802D06268A1688A
:100300009AE0E16820460026884705460020E06123
:100310000746A0612A2D0AD0284604F08FFF002846
:1003200027D0B8000019303D0090856119E002988F
:10033000BA00121902C8916102902046E16888470C
:10034000012F054617D1E06900281FDA20208643D7
:100350001CE000980A218069484300994019303810
:1003600088612046E1688847054604F067FF002859
:10037000EFD1012F0AD02E2D08D12046E168884701
:100380000546202006437F1C022FC3DBA0690028FE
:1003900003DA4042A06101200643F00701D010209B
:1003A00086436C2D0AD0682D08D04C2D3CD06A2D88
:1003B00038D0742D38D07A2D36D016E0E1682F462B
:1003C00020468847B84205460AD16C2F2AD0012022
:1003D0008002E168064320468847054605E02FE095
:1003E0006C2F1DD0FF2001300643002D28D0284659
:1003F0004138192803D80120C00206432035204681
:1004000026602946029A1646FFF798FE002810D06B
:1004100001280BD0F61DF008C0000830029066E7F6
:100420004020E1E78020D4E70020D2E7361D029685
:100430005DE762682846A1689047206A401C55E73E
:10044000206AFEBD01E004C0091F0429FBD28B070E
:1004500001D50280801CC90700D0027070470029B6
:100460000BD0C30702D00270401C491E022904D3DE
:10047000830702D50280801C891EE3E70022EEE795
:100480000022DFE7002203098B422CD3030A8B42B0
:1004900011D300239C464EE003460B433CD400227C
:1004A00043088B4231D303098B421CD3030A8B428E
:1004B00001D394463FE0C3098B4201D3CB01C01A5C
:1004C000524183098B4201D38B01C01A5241430927
:1004D0008B4201D34B01C01A524103098B4201D315
:1004E0000B01C01A5241C3088B4201D3CB00C01A82
:1004F000524183088B4201D38B00C01A52414308FA
:100500008B4201D34B00C01A5241411A00D201461E
:100510005241104670475DE0CA0F00D049420310B7
:1005200000D34042534000229C4603098B422DD306
:10053000030A8B4212D3FC22890112BA030A8B42AE
:100540000CD3890192118B4208D3890192118B42FD
:1005500004D389013AD0921100E08909C3098B4282
:1005600001D3CB01C01A524183098B4201D38B01C5
:10057000C01A524143098B4201D34B01C01A524168
:1005800003098B4201D30B01C01A5241C3088B42AD
:1005900001D3CB00C01A524183088B4201D38B0098
:1005A000C01A5241D9D243088B4201D34B00C01A22
:1005B0005241411A00D20146634652415B10104637
:1005C00001D34042002B00D54942704763465B107F
:1005D00000D3404201B50020C046C04602BD70476E
:1005E000704770470246C80FC00781434B0030B5C3
:1005F0004B405B009B0D20D01923DB06C91801235B
:100600001B05994220DB0324A40704251346AB40B5
:100610000BD3002B04D1EB0613409B00E34204D420
:1006200001246407002312195941FF231B05994235
:100630000BD2C9000143500F09E0CB0204D501439E
:100640000803024305D0054830BDFF21C905084312
:1006500030BD084607210905884330BD0000C07F32
:100660001F22030C02D10F22000402D0030E03D07C
:1006700004E00020014670470002083A030F01D150
:100680000001121F830F01D18000921E002801DBA0
:100690004000521E120551184205C0124118104662
:1006A0007047C10FC90700D0404201229207114391
:1006B000D6E701218907D3E7F0B58B4C0F09254612
:1006C00089B0BD437BD01D092646AE43FAD00E4605
:1006D0005E402740F60F3E43254071D02401214261
:1006E000FBD0FF24AD19A4042D1B039501252D0576
:1006F000DB02DB0AC9022B43C90A29431E01090197
:10070000040F130F050121431701880B8203914346
:100710002D098C46A90B1E438A039543B30B9A03FC
:1007200096433F09BA0B9403A74302962E467E4395
:100730000497B6464E19D7190C46019654430597AF
:100740007E43371B7646BF1B3601B646BE0B3619B5
:1007500000967646BC043719009C01D3641C0094B3
:100760006400002F01D001263443029E049F75438C
:1007700066467E430496760034196E003419009460
:10078000029C019E1C196643751BAE460694654685
:100790004519059C05956C43594375460891691A9E
:1007A0000191049E01465143A41B0491611A009CCF
:1007B0000791E10605D061090122114302E072E0D0
:1007C0006EE06109089D00272C0A2D066918049D1A
:1007D0007C412A0A2D066918019D6241AC0DAD02CB
:1007E0006D185441079A910D920255196141029A70
:1007F000644658435443069B059A5A43121A131BE6
:100800009A0E9B015B187A41010B0005C3185141F8
:10081000220A200644195A419A4200D2491C01205A
:100820004002814203D315230226F64302E014233B
:100830000326F6432020C51AA9401746AF40DA40E8
:100840000A4320460399D840091473181905511812
:10085000039A3843D2075140AC4009D0012294405A
:1008600006D30022401C5141002C01D14008400019
:100870001E4A934212D3012203989206904207DB4C
:100880000520400709181A480143C012414004E0FE
:10089000032040070818C10FC907002009B0F0BDA8
:1008A0000020F107FAE705180C464C4111486D424B
:1008B000A04115D394181A465A410E4864429041FB
:1008C0000ED301204A004005824209D35A008242D9
:1008D00006D35940C90F084AC90700201143DDE774
:1008E00000200649DAE700000000FF07FE070000CD
:1008F000FFFFFF7F0000E0FF0000F07F0000F87FB7
:100900000121C9050123411842001B06D3185B0EC3
:100910000AD0C1100722D206891840075242D1429C
:1009200001D5520089187047090208D50146002AEE
:1009300003D0C10FC907002070471046704742021C
:1009400002D0002002497047072109050143F4E75E
:100950000000F87F0102C21504D00123DB07194310
:10096000002A0ADB9E239A1A02D40846D040704718
:10097000FF2241001206914201D900207047C017A2
:10098000C04370471F22030C02D10F2200041CD069
:10099000030E01D10002083A030F01D10001121F1A
:1009A000830F01D18000921E002801DB4000521EFF
:1009B000D2055118021251181922904004D3491C33
:1009C000002801D14908490008467047C10FC907EE
:1009D00000D04042012292071143D3E70121890749
:1009E000D0E7FFB504460D4681B024300090216861
:1009F000880604D51022E0699143216000E00120BF
:100A0000A84201DD471B00E000270498A1697A197C
:100A10001018081AA0612078C00602D42046C046EB
:100A2000C046002608E003986268A168805D904790
:100A3000206A401C761C206204988642F3DB2078F2
:100A4000C0060AD52046C046C04606E06268A168D6
:100A500030209047206A401C206238467F1E0028C4
:100A6000F4DC07E000986268A168405D9047206A66
:100A7000401C206228466D1E0028F3DC2046C0463C
:100A8000C0462078000602D5022005B0F0BD012046
:100A9000FBE700007047FFB50C461E468FB003CA47
:100AA000089009914F007D0D00D16D1E0021084670
:100AB0000020C0460321099A89050840002A03DA6C
:100AC0008200801840080840800D01280A9002DD4D
:100AD0000020C0430A90089807430DD0F048F14920
:100AE000281848430714189800281DD07542291E5D
:100AF0001DDD0A9842421BE01898012802D0002010
:100B0000302104E00020F24305E02154401CB042B3
:100B1000FBDB30460022189B002121540F998B608B
:100B20000A60486013B0F0BDBD1B6D1CDFE70A9A78
:100B3000002900DA69420BA800F0AAFC0BAB07CB36
:100B400003AB07C30899099800F00EFD6B4607C375
:100B50000146D5480918002D00910BDDD2490398B4
:100B60000A9A49424018002303A90390684600F0FE
:100B70006BFF08E003990A9A0023081803A9039061
:100B8000684600F00BFF6B4607C30004000C03D05F
:100B90000020C043410800E01046189A002A03D004
:100BA0000022009215461EE0751E05D400F0EEFBF3
:100BB000303262556D1EF9D501220843079602D0E6
:100BC00000227F1C04E02078302801D100227F1E03
:100BD000002A069787D01EE0112D07DA00F0D6FB19
:100BE000303262556D1C02460A43F5D1084303D0EA
:100BF0000098002819D00EE00021681E05E0235C53
:100C0000625C63542254401E491C8142F7DBA81BDE
:100C1000401E07950690079A18990020A0540F9837
:100C2000079B069A81600CC07CE711260020189073
:100C300059E7D21DF0B50D460446D10893B0C9005E
:100C400003C90C900D9104F0C1FA02460D98C00F33
:100C500001D02D2007E02068810701D52B2002E07C
:100C60004007C00F4001032A0F9001D0072A05DB7F
:100C700003462946204600F0C7FB0EE12078800697
:100C800001D5E76900E006272846652D04D06628CF
:100C900014D0672D69D12DE00020112F009001DBC9
:100CA000112300E07B1C0CAA03A910A8FFF7F3FE98
:100CB0001199002610987D1C0E9142E001203B46C0
:100CC0000CAAC0070B900120009003A910A8FFF701
:100CD000E2FE119D12981099002600280E9501D170
:100CE000781C0D18781B02D446427D1C761EE81B2A
:100CF00000903AE0012F00DA01270020112F009028
:100D000001DD112300E03B460CAA03A910A8FFF760
:100D1000C2FE11993D46109800260E9121780907D0
:100D20000BD40E99A94200DA0D4603A9012D04DD6A
:100D30004A19203AD27F302A06D0B84201DA011D82
:100D400004DA012100910FE06D1EEFE7002802DCBC
:100D500086192D1A03E0411CA94200DD0D46801BB7
:100D6000401C00900120C0070B902078000705D49C
:100D70000098A84202DB0020C04300906946002092
:100D8000C8720B98012102AF0337C907884225D0EA
:100D9000022010902B2011900B9800280BDA404273
:100DA0000B902D20119006E00B9800F0B3F8303135
:100DB0007F1E0B9039701099481E00291090F3DCAB
:100DC0000B980028F0D111987F1E387020880005FC
:100DD00001D5452000E065207F1E387001A8C01BAA
:100DE000C01D0B900F98002800D0012041190098D9
:100DF000C01709180B980818A169081A401EA061AD
:100E00002078C00602D42046C046C0460F9800286D
:100E100005D06268A1689047206A401C2062207853
:100E2000C00625D52046C046C04621E0002E07DB7F
:100E30000E98B04204DD03A86268805DA16802E0FC
:100E40006268A16830209047206A761C401C2062AE
:100E50000098401E002800900AD100F093FAC06864
:100E600062680168405CA1689047206A401C20626B
:100E700028466D1E0028D9DC07E062683878A16832
:100E80007F1C9047206A401C20620B99481E002955
:100E90000B90F2DC2046C046C046032042E600002C
:100EA00001FCFFFF104D0000E1DFFFFF01694A1C5C
:100EB00002610878704700B58FB00291002105915A
:100EC0000549019379440391114604906846FFF760
:100ED00009FA0FB000BD0000E5FFFFFF0A681070BF
:100EE000521C0A60704710B54369002B02D0C046FF
:100EF000C04601E0FFF796F9012010BD12780146C7
:100F000024310A7000224A700122ECE711680022A5
:100F1000D243E8E701468008081A02091018020ABD
:100F20001018020C1018C008820012185200891AFA
:100F300001E0401C0A390A29FBD27047F0B50C4683
:100F4000871A9C410D46861A9D4103D2C01BA141C0
:100F5000D21963410D0D1F0DC94EEC1BAE435CD081
:100F60007F057F0D0026002F51D02D05AC46A943EB
:100F7000DD020123ED0A1B051D4320231B1B24D486
:100F80001746E740381871412F46E740CC199D407D
:100F90002818314661410C0D27D161449A4013D580
:100FA0000023401C594152000ED14008400001224C
:100FB0004B005205D34207D305204007C14201D55B
:100FC000B04900E0B0493046F0BD6B00002A00D0C7
:100FD00001229A181F23203C1B1B01D5002302E08D
:100FE000E540281871410C0DD7D0012424050919BA
:100FF000C407CD0740084908E40F28436144002C8A
:10100000D5D00024401C61419A40D0D1CDE76A057B
:10101000520DD9D1C90FC907D5E79C4D4E00002804
:1010200001D0012400E0002434195F00002A01D01F
:10103000012600E00026BE19954FAC420CD8AE4206
:101040000AD8B44206D001256D05EC42BCD010464A
:101050001946F0BD9942FCD000203946F0BDF0B5EC
:101060001FB40C460F46811A9F412546861A9D41A2
:1010700006D20125ED076F40401ABC4152187B4152
:10108000210D1E0D8D1BAC467D4D8D437ED075050B
:101090006D0D7CD00D05AE46AC431B031B0B794D8B
:1010A00052429D41202366469B1B14D31746F740AE
:1010B000381800260090744160462F460741E41915
:1010C00000989D402818664116D4714671189A40C0
:1010D00025D5012320E093182A466A415200002BAF
:1010E00000D0521C1E23203E9B1B002B61DD35418E
:1010F000EE1728186641E8D5001876415B1C9A4027
:1011000000D3401C4B05F3181524E34010D3002BEB
:1011100052D071467118D30FC01802D3491C05B0C4
:10112000F0BD0123DB079A42F9D140084000F6E701
:1011300001225205B21801D1002853D00123CC0A54
:10114000DB029943891E002A08D1020C03D0020C4D
:101150000004103902E00246002020390023550B1C
:1011600005D112020823550B01D152010D23550C54
:1011700001D112011B1DD50C01D192009B1C150D34
:1011800001D152005B1C2025EE1A01E02CE022E088
:101190000546F54015439840CA1AE107691813053A
:1011A000C918002ABBDA032040070818C10FC90775
:1011B0000FE071466118B2E7F1074008084371106B
:1011C00071444A000CD001235B059A42A7D2C90F93
:1011D000C9070020A3E74905490D26D1002001E0F9
:1011E0000028F4D100219AE7284D6600002801D09C
:1011F000012100E0002171185F00002A01D00126C2
:1012000000E00026BE19224FA94210D8AE420ED8E7
:10121000B14208D001256D05E94206D01946A80261
:10122000414010467BE79C4201D0214677E70020F1
:10123000394674E710B50C465C4005D50124E40737
:101240006340FFF70CFF10BDFFF778FE10BD30B410
:101250000C465C4004D50124E407634030BC6DE6D5
:1012600030BCFCE670B50124E40761400D465D40EA
:1012700002D4FFF763FE70BD6340FFF7F0FE70BD60
:10128000FF0700000000F0FF0000F07F0000E0FF1B
:101290000000F87FF0B501230A0DDB0200249A4319
:1012A000E4430025002A28D05B1E9A4223D05B101D
:1012B000D61AA64228DB721C48D0342E18D202223D
:1012C000142E2BD822D00B460D36B34001D1002866
:1012D0000FD00024701E0B468340DB0FF2412846DE
:1012E000551EA943002B03D08918002C00D0914330
:1012F000F0BD0124EEE79A4239D04A000243F7D00C
:10130000C90FC9072846F0BD002223E00122C30F00
:10131000400001D00024E2E70124E0E70346133E49
:10132000B34011D00023741E0746A740FC0FF241C2
:101330001746521E9043002CE5D0002B00D0521CC3
:10134000C01969419043F0BD0123ECE701220B0372
:1013500018430AD00023C90FC9072846002AF2D033
:10136000002BF0D1054A1143F0BD0123F3E70A0336
:1013700001D10028F8D000200149F0BD0000F03F65
:101380000000F87F00487047F00100200B4670B560
:10139000024689078008084319469D08141AA94186
:1013A00025090807054308092C194841250A0106A3
:1013B0000D43010A2C194141200C0D0428430D0C4A
:1013C00000194D41002140194D41C00869070843EB
:1013D000E908840F8D002543840024184D41241909
:1013E0006D41121BAB4107E00925ED432C11521949
:1013F00063410024401C61411C460A250026551B00
:10140000B441F1D270BD0000F8B51F460446012377
:101410000068DB02032601461840072A05DB002886
:1014200001D017A506E017A504E0002801D016A5F5
:1014300000E016A5102081432160A069C01E002F86
:10144000A06101D0401EA0612046C046C046002FCA
:1014500009D038466268A1689047206A401C206223
:10146000C01C206206E0206AFAE762682878A1685A
:101470006D1C9047761EF8D22046C046C046F8BD87
:101480004E414E006E616E00494E4600696E660028
:10149000F7B516468AB0334878446C4603467C3329
:1014A000C06F5A689B680DC42E487844763003ACF0
:1014B0000DC80DC43720C001081837211B30FEF7B6
:1014C000EBFF05460C46803D1B3C02D564420120E3
:1014D00000E000200027099010E0E0070CD00C206D
:1014E00020497843794432464C39411868460123F3
:1014F00000F054FA6B4607C364107F1C002CECD13B
:10150000184F7F442E3F16E0E80712D02001C01983
:101510000EC80691089307920068F04201D198190D
:1015200008903246012306A903A800F037FA03AB5E
:1015300007C36D10641C002DE6D10998002806D061
:1015400032466946012303A800F07EFA05E0012334
:101550003246694603A800F021FA0A9B07C30DB082
:10156000F0BD0000C8500000034640000A4610B518
:10157000400D0BD00121C9070F24A40200191C0340
:1015800064082143540D2143D20207E000210120C9
:10159000F2E7D40F490021435200401E0029F8DA37
:1015A000DB0FDB07184310BDFFB50D46144685B0B1
:1015B0004868516803F0F2FD00910190A868A168A5
:1015C00003F0ECFD02910390A868616803F0E6FD6A
:1015D000029A12188242029201D2012000E00020F9
:1015E000019A0B18D2180028019202D08A4202D91F
:1015F00003E08A4201D2012000E00020009908188F
:1016000000906868A16803F0C9FD029A121882422E
:10161000029201D2012000E00020019A0B18D2189A
:101620000028019202D08A4202D903E08A4201D204
:10163000012000E000200099081800902868216827
:1016400040004900400849084018FA49471814E08A
:1016500001994000C90F0843009001980299400089
:10166000C90F08430190029803994000C90F08432D
:101670000290039840007F1E039000980028E7DA4C
:101680000898002801D0EC4E00E00026B74201DAAD
:10169000012000E00020002804902AD0F71BF80663
:1016A000C00E15D0029B2021091A039A8B401A43C1
:1016B0000392029A019BC2408B401A430292019A04
:1016C000009BC2408B4000991A430192C140009197
:1016D0007B110DD06F460320C11A03D50021820073
:1016E000B95003E08A008100BA587A50401EF3D501
:1016F000374603980299002800D00120014308983A
:101700000291002808460CD0002800D00120019941
:10171000019A490508430121D20AC902D202019265
:1017200000E001210E9B0122D207012B02D0002BE9
:1017300003D013E0002807D120E0904204D8904263
:101740000CD1019B0B4209D0019B5918019105D185
:101750000099491C009101D17F1C009200280DD0F6
:10176000102108460020C0460498002806D00F9893
:10177000002803D0082108460020C04628682168B8
:10178000019B009A4840C10F0598C90739430EC014
:1017900009B0F0BDFFB587B0099A08980899536859
:1017A00092684068896896460022039317469446DB
:1017B000089A12685300099A5B081268520052088E
:1017C0009A1A9E4BD4180A9A002A01D0352200E0BA
:1017D000402206920022012315460492DB0705935E
:1017E00024E0002D05D175460346039E4D1BB341F1
:1017F00009D375466646039B491B049D9841059B8A
:101800007519AC465F4163463B4308D0059B049E77
:10181000DD0776082E435B080496059301E0521E0F
:10182000641EC50FED0749184041521C069B9A42A1
:10183000D7DB002D04D17546039A6B1A824101D281
:1018400003200CE0039A0B466B404240134303D045
:10185000014303D0012002E0022000E000206146A5
:1018600001910021009702910A99002905D0614653
:1018700040020143704B019102E080070023029077
:101880009C4201DA012000E0002007003AD01A1B38
:10189000D006C00E15D0029D2021019C091AC5401A
:1018A0008C402543029C8C4000D001242543019CA0
:1018B0000295009DC4408D4000992C430194C14085
:1018C000009154111DD06D460221002202290CD135
:1018D0000320001B07E0002804DB8600AE59002E21
:1018E00000D00122401C0328F5DB081B02D588002C
:1018F0002A5004E08000285810438A00A850491E4E
:10190000E3D51C460A98002802980CD0002800D085
:1019100001200199019A490508430121D20AC9020F
:10192000D202019200E00121109B0122D207012B7B
:1019300002D0002B03D013E0002807D11FE0904213
:1019400004D890420CD1019B0B4209D0019B59183D
:10195000019105D10099491C009101D1641C0092AC
:1019600000280CD0102108460020C046002F06D0C9
:101970001198002803D0082108460020C046089886
:101980000999019A009B006809684840C10F0798AF
:10199000C907214382600AC00BB0F0BD00B585B015
:1019A000019300920A460146002302A8FFF7FCFDBE
:1019B00002A807C805B000BDFFB50A461F4685B09E
:1019C0000799019301230091014602A8FFF7ECFD5E
:1019D00002990398049ECA0F4900D20700920F2271
:1019E000490892028C1A0021002800DB0C464500B1
:1019F00013486D08844214D3079A002A04DA441E5F
:101A00000026104DF64302E004460D460E46102116
:101A100008460020C046002F03D0042108460020BD
:101A2000C0462005E90A0843009908436905F20AFF
:101A30001143ADE602C0FFFF013C0000FF3F000084
:101A4000FF070000FFFFFF7F00B585B00193009204
:101A50000A460146002302A8FFF79CFE02A807C819
:101A6000A8E7FFB50A461F4685B0079901930123F1
:101A70000091014602A8FFF78DFE02990398049E8B
:101A8000CA0F4900D20700920F22490892028C1A0D
:101A90000021002800DB0C46450011486D088442F7
:101AA00014D3079A002A04DA441E00260D4DF6438B
:101AB00002E004460D460E46102108460020C046AE
:101AC000002F03D0042108460020C0462005E90A63
:101AD0000843009908436905F20A114358E60000DB
:101AE000FF070000FFFFFF7FF8B5224C4E00069D68
:101AF000A6420AD8A64201D1002806D15E00A6421D
:101B000003D8A6420AD1002A08D00D242404254275
:101B10002CD02946002000F09FF8F8BD0C461C434D
:101B20000CD4994202D0EFF30080F8BD904202D06D
:101B3000EFF30080F8BDEFF30080F8BD092424071F
:101B4000E5008B4206D0EFF30080A043591A06D27D
:101B5000284304E0101A05D3EFF30080A04380F37C
:101B60000088F8BDEFF30080A043F1E7009500F096
:101B70008BF8F8BD0000E0FF00487047D00100205E
:101B80007546FFF7F9FFAE46050069465346C008A3
:101B9000C000854618B020B5FEF70CFB60BC0027DE
:101BA0004908B6460026C0C5C0C5C0C5C0C5C0C529
:101BB000C0C5C0C5C0C5403D49008D46704710B581
:101BC0000446C046C0462046FEF7E4FA10BD0000B9
:101BD000024670B50A4392072AD11E4DEE0104C891
:101BE00008C9541B9443344017D0D0B2D9B2401A1C
:101BF0002106014310D190B299B2401A2104014349
:101C00000AD110021902000A090A401A21020143EE
:101C100002D1100E190E401A70BD9A42DFD010BAD0
:101C200019BA884201D9012070BD0020C04370BD9F
:101C300002780B78401C491C002A09D09A4207D12F
:101C400002780B78401C491C002A01D09A42EFD040
:101C5000D01A70BD01010101C80212D54803400F1E
:101C6000002804D0C803C043012188407047EFF327
:101C700000800001000903210907084380F3008860
:101C8000704700207047000010B500200249029AFA
:101C900000F004F810BD00000000F87F10B50C46FD
:101CA0001107090F092904D00A290AD008290CD1E3
:101CB00004E011460820FFF7CFFF06E0510606D5E5
:101CC00001E0510601D50120C007214610BDD10613
:101CD00007D501010909CC084907000E0006044395
:101CE00009E0410F20024907000A0143200E0006C7
:101CF0001D22D14101430846E7E7000001491820B1
:101D0000ABBEFEE7260002007047000010B500F0F1
:101D100059F9E52807D00021082327A2084602F038
:101D20005EFE012010BD0021082326A2084602F015
:101D300056FE284800F066FEFF24F534204600F0E9
:101D40008DF900212E2000F00FF90921312000F03B
:101D50000BF91A212C2000F007F908212D2000F0A2
:101D600003F928211D2000F0FFF81021212000F0A8
:101D7000FBF85021222000F0F7F8F021232000F09A
:101D8000F3F807212A2000F0EFF840212F2000F07F
:101D9000EBF860212E2000F0E7F808230EA20121C5
:101DA000002002F01CFE0B4800F02CFE204600F044
:101DB00055F9002010BD000046696E64696E672009
:101DC000494D5500494D5520666F756E64202020A1
:101DD000200000007C000020494D5520696E697488
:101DE00020646F6E6500000010B586B00A230F22D4
:101DF00012A1164801F008FE32203324694600F093
:101E000027F801A9204600F023F86946302000F0A9
:101E10001FF83420352402A900F01AF803A920463F
:101E200000F016F83620372404A900F011F805A9AF
:101E3000204600F00DF806B010BD00004144584C9B
:101E40003334352050726F62650D0A003C0100206A
:101E500073B50C466946087880218006800E0843D9
:101E60006946087005252D0700222021284600F02C
:101E700047FA0A2301226946074801F063FB0A2357
:101E800001222146044801F0A9FA01222021284616
:101E900000F036FA7CBD00008C00002010B588B040
:101EA000322033246946FFF7D3FF01A92046FFF70C
:101EB000CFFF68460079010268460078081802B230
:101EC00021A103C90791069021A106A8FEF784F974
:101ED000082306AA0221002002F081FD34203524C7
:101EE00002A9FFF7B5FF03A92046FFF7B1FF684637
:101EF000007B01026846007A081802B216A106A803
:101F0000FEF76AF9082306AA0321002002F067FD04
:101F10003620372404A9FFF79BFF05A92046FFF7C9
:101F200097FF6846007D01026846007C081802B2EF
:101F30000BA106A8FEF750F9082306AA03214020AA
:101F400002F04DFD08B010BD202020200000000050
:101F5000783A256869202000793A256869202000B0
:101F60007A3A25686920200013B568460078052470
:101F70008106890E68460170240700222021204630
:101F800000F0BEF90A2301226946074801F0DAFA97
:101F90000A23012201A9044801F0D4FA01222021D8
:101FA000204600F0ADF91CBD8C00002010B5FF20CC
:101FB000013000F0D1F80120C00200F0CDF810BDD2
:101FC00072B6FEE708B5002069460870FFF740FFCB
:101FD0006946087808BD0000F8B5002402462032A2
:101FE0005179022903D00421C16301242DE0016845
:101FF0000B680E25AB430B6001680B685B085B0048
:102000000B60416C0B68FF250135AB430B60104939
:102010004D68066C1C231E4001231F46B7403D43FC
:102020004D60816CC56C4D60016D002906D00E6855
:102030001D02AE430E60416D856D4D6053710021F0
:102040001171816B002900D088472046F8BD00003F
:1020500000000240203040797047000070B504460F
:1020600000F054F90546601C02D00448007824189A
:1020700000F04CF9401BA042FAD370BD18000020BC
:10208000F0B500235AE001249C4022460A4054D077
:102090009E082C4DB60075192F6EAC469D07EE0EAE
:1020A0000F25B540AE463D4005273F07B84201D158
:1020B00000270FE0244FB84201D101270AE0234F47
:1020C000B84201D1022705E0214FB84201D10327D0
:1020D00000E00527B740AF4214D11A4E803635686C
:1020E00095433560756895437560164E75689543E0
:1020F000756035689543356065462D6E724695432B
:102100006246156605685E000322B240154305600D
:10211000DD08AD002D182E6AAC465D07EF0E0F25C9
:10212000BD40AE4365462E6285689543856045682F
:10213000A5434560C4689443C4605B1C0A46DA400A
:10214000A1D1F0BD0018024000040050000800506A
:10215000000C00507047000070B5084D0446E86858
:10216000204203D0EC60204600F00AF828692042A3
:1021700003D02C612046FFF7EDFF70BD0018024030
:102180000121C902884207D105480178012904D0FC
:10219000022901D10121017070470221FBE70000F3
:1021A00000000020F0B5002303249AE02A46012510
:1021B0009D402A407ED00E79B607B60F012E01D081
:1021C000022E16D186682746B4465E00B646B74052
:1021D0006646BE43B446CF687646B7406646374348
:1021E00087604668AE430D79ED06ED0F9D4035439F
:1021F00045600D79ED43AD0708D0C5685F00264600
:10220000BE40B5438E68BE402E43C6600D79AD0713
:10221000AD0F022D0ED1DD08AD002D18AC462D6A94
:102220005E07F60E0F27B740BD430F69B7402F4337
:1022300065462F6205685F002646BE40B5430E79AD
:10224000B607B60FBE402E4306604D68AD03AD0F16
:1022500046D09E08264DB6007519AC462D6E9E07D9
:10226000F60E0F27B740BD4305273F07B84201D1FF
:1022700000270FE01F4FB84201D101270AE01E4F8F
:10228000B84201D1022705E01C4FB84201D1032713
:1022900000E00527B7402F43154D664637662D6889
:1022A0004E689543F60200D51543114F3D607D6899
:1022B000954300E014E04E68B60200D515437D60FA
:1022C0000B4D80356E684F689643BF0300D51643AB
:1022D0006E602E684F689643FF0300D516432E604C
:1022E0005B1C0A681546DA4000D05FE7F0BD0000CD
:1022F000001802400004005000080050000C00507C
:10230000002A01D08161704781627047014880686E
:10231000704700001800002070B502464032537824
:10232000202B1CD11378012B19D0012313702424E6
:102330005470046825689D432560046825681E0361
:10234000B5432560046825680D4325600068016871
:1023500019430160202050700020107070BD0220D1
:1023600070BD70B5024640325378202B1BD11378D4
:10237000012B18D0012414702423537003681D68A6
:10238000A5431D6005682B680F263602B34309027A
:1023900019432960006801682143016020205070C2
:1023A0000020107070BD022070BD7047704770B57E
:1023B00003689A691968D243D40508D4CC4324062B
:1023C00005D4446C01252C4344642C02DC61530584
:1023D00009D4CB431B0606D4436C0824234343642F
:1023E000E3010468E361920509D4C943090606D4F0
:1023F000416C02221143416411020268D161416CB7
:102400000B22114201D001F0FDFB70BD0268916901
:102410001268436B002B00D01847704710B5044674
:1024200000F050FA204600F06DFA10BD70B50400BF
:1024300006D02546403568780026002802D005E001
:10244000012070BD2E70204600F05CFA24206870D8
:10245000206801684908490001600F216068090689
:1024600088432168086121688A680120C00382438B
:102470008A60E1680129A1682FD0212292021143CC
:10248000226891600121E268C902022A2268536829
:1024900025D08B43536021684A68124B1A434A6027
:1024A0002168CA688243CA60616920690843A169DA
:1024B000090208432168C860216AE069084321686D
:1024C00008602068016801221143016066642020D1
:1024D00068702663AE70002070BD0143D0E70B43E7
:1024E000D8E700000080000270470000FFB50546F5
:1024F00004464035687881B0202877D128780128B3
:1025000074D001202870FFF701FF074601220090D8
:102510001923D103204601F0EAFE002851D12120E1
:1025200068701020A87000266664039860620499A1
:1025300061856663628D3949FF2A03D9FF222285AE
:10254000CB0206E0628D228501235B061204120C89
:102550000FD0226800789062606A401C6062608DD3
:10256000401E6085208D401E2085401CC2B2009117
:1025700001E0002200912046029901F08FFE16E052
:1025800001F019FF00281CD1606A21680078886278
:10259000606A401C6062608D401E6085208D401E18
:1025A00080B22085618D002901D000280CD0608D7B
:1025B0000A9900283A462046E2D101F0D1FE0028CF
:1025C0001DD0012005B0F0BD0097002280212046DB
:1025D0000A9B01F08CFE0028F3D1608DFF2806D9FC
:1025E000FF22228501231B060096C4E714E0608DBC
:1025F00020850096208D0123C2B25B06BBE72168CF
:102600002020C86121684A68054B1A404A606870FA
:10261000AE702E700020D5E70220D3E700200080A6
:1026200000E800FEFFB5054604464035687883B0F3
:10263000202875D10C98002814D00D98002811D0AE
:10264000287801286CD001202870FFF75FFE07462C
:10265000012200901923D103204601F048FE0028F2
:1026600074D103E00120400260646FE022206870B2
:102670004020A870002666640C9860620D98608502
:1026800066630E980090019704A90EC9204601F0D8
:1026900015FD002801D02E7058E0618D3448FF29C7
:1026A00005D9FF22228501231B06009006E0618DDB
:1026B00021850090208D0123C2B25B06204604993B
:1026C00001F0ECFD00970022042120460E9B01F052
:1026D0000EFE00283AD12068406A616A0870606A7C
:1026E000401C6062208D401E81B22185608D401E9D
:1026F0006085608D00281FD000291DD10097002221
:10270000802120460E9B01F0F2FD00281ED1608D35
:10271000FF2806D9FF22228501231B06009607E029
:1027200024E0608D20850096208D0123C2B25B06D7
:102730002046049901F0B2FD608D0028C2D13A46CE
:1027400020460E9901F00CFE002802D0012007B0AF
:10275000F0BD20682021C16120684268054B1A4005
:1027600042606970AE702E700020F0E70220EEE744
:102770000024008000E800FEFFB505460446403511
:10278000687883B0202872D10C98002814D00D9856
:10279000002811D02878012869D001202870FFF77F
:1027A000B5FD0746012200901923D103204601F010
:1027B0009EFD002871D103E00120400260646CE0BE
:1027C000212068704020A870002666640C98606222
:1027D0000D98608566630E980090019704A90EC954
:1027E000204601F09BFC002801D02E7055E0608D42
:1027F000FF2805D9FF22228501231B06009606E04B
:10280000608D20850096208D0123C2B25B06204694
:10281000049901F043FD3A4620460E9901F0CBFDA4
:1028200000283AD1606A216800788862606A401C9A
:102830006062608D401E6085208D401E80B22085C4
:10284000618D00291FD000281DD100970022802112
:1028500020460E9B01F04BFD00281ED1608DFF2805
:1028600006D9FF22228501231B06009607E024E0FB
:10287000608D20850096208D0123C2B25B06204624
:10288000049901F00BFD608D0028C4D13A46204622
:102890000E9901F065FD002802D0012007B0F0BDBF
:1028A00020682021C16120684268054B1A404260BF
:1028B0006970AE702E700020F0E70220EEE7000095
:1028C00000E800FE10B500680B49884212D10B48A1
:1028D000C16B012252059143C163094C8115204609
:1028E000FFF7CEFB012149022046FFF7C9FB172065
:1028F00000F0EEF810BD000000540040001002404F
:102900000004005030B58DB0044614216846FDF730
:10291000B7FD182105A8FDF7B3FD1B4920688842C3
:102920002FD1202000250590079505A800F016F965
:10293000002801D0FFF744FB144C616B02200143D7
:102940006163616B02950140032000020B910090CE
:102950001220019006200490039569460C48FFF769
:1029600021FCE16B012040050143E163E16B0022A2
:1029700001400B911146172000F0C6F8172000F017
:10298000B7F80DB030BD0000005400400010024008
:10299000000400507047704770B504000FD02168E4
:1029A0001548086021681548086003CC416020681C
:1029B000083C21688860FFF7A9FC05460CE001206F
:1029C00070BDFFF7A3FC401B312805D92068C06803
:1029D000400701D0032070BD2068C0684007F0D1D7
:1029E00020680269E1688A4201D0016101E004497E
:1029F0000160002070BD0000CCCC000055550000E7
:102A0000AAAA000000680249016000207047000087
:102A1000AAAA00000248816802788918816070477C
:102A20001800002010B508480024016882151143E1
:102A30000160032000F00AF8002801D0012401E021
:102A400000F028F8204610BD0020024070B50F4E5F
:102A5000002431780546002915D07D20C000FDF7FF
:102A600011FD01460A480068FDF70CFD00F016FF55
:102A7000002808D1042D06D200222946401E00F06D
:102A800043F8756000E00124204670BD1800002066
:102A90002400002008B50D4801680122114301609F
:102AA00000681040009009484038C26B01040A4396
:102AB000C263C06B0022084000901146042000F061
:102AC00023F8042000F014F808BD00004010024074
:102AD000002809DBC106C90E0120884003490860AF
:102AE000BFF34F8FBFF36F8F7047000080E100E0AE
:102AF000002805DBC106C90E012088400149086095
:102B00007047000000E100E010B502F075FB10BD59
:102B100010B50F4C216803225202914301432160FA
:102B2000C11FFF39FA390ED10A480621006848430F
:102B30000949FDF7A7FC401C02E0002805D0401E13
:102B400061694905F9D4002010BD032010BD0000C3
:102B5000007000402400002040420F00F8B50446F9
:102B6000006800264D4D800358D54C48002740385A
:102B7000C06BC00009D449484038C26B01040A4305
:102B8000C263C06B08400127009045480168821568
:102B900011430160FFF7BAFB009005E0FFF7B6FBB9
:102BA0000099401A022825D83D480068C005F5D58F
:102BB000E8690321090208400FD0616981420CD005
:102BC000E86903210902EA698843012109040A43EB
:102BD000EA61EA698A43EA61E861C0070FD0FFF75A
:102BE00095FB009008E0FFF791FB0099411A2D48F2
:102BF000814201D9032609E0E8698007F3D5E86935
:102C000003210902884361690843E861002F05D068
:102C100022484038C26B01048A43C2632078C0074F
:102C200005D0686961688008800008436861207881
:102C3000800606D56869032109038843A168084313
:102C400068612088400411D5686921698000800886
:102C500008436861012120698907884206D10F482D
:102C60004038C168012212041143C1602088000568
:102C700012D56869032189038843E16808436861C4
:102C80000121E0688903884206D104484038C168C0
:102C9000012212041143C1603046F8BD40100240C9
:102CA0000070004088130000F8B50F46060043D0BE
:102CB0004D4D28684007400FB84213D22868C0081D
:102CC000C00038432860FFF721FB044605E0FFF70A
:102CD0001DFB011B4548814261D828684007400F11
:102CE000B842F4D13068424C81070DD5400704D575
:102CF000A068072109030843A060A0680F2109020A
:102D00008843B1680843A0603078C00732D070684B
:102D100001280AD002280BD000280FD034494031B6
:102D200003280ED0C969890704E02168890301E0FE
:102D300021688901002906DB0120F8BD21684905C9
:102D4000F8E7096AEFE7A168C908C9000143A16073
:102D5000FFF7DCFA009006E0FFF7D8FA0099411A75
:102D6000224881421BD8A068382108407168C900F8
:102D70008842F1D128684007400FB84217D91A4855
:102D80000168C908C90039430160FFF7BFFA054669
:102D900007E0FFF7BBFA411B1448814201D9032029
:102DA000F8BD114800684007400FB842F1D13078B3
:102DB000400706D5A068072109038843F168084346
:102DC000A06000F031F8A1683C2289091140094A4D
:102DD000515CC906C90EC840074908600748006829
:102DE000FFF734FEF8BD0000002002408813000009
:102DF0000010024004650008240000201C00002090
:102E00000648074900688968064A4904490F89004D
:102E1000515CC906C90EC84070470000240000205C
:102E2000001002404465000810B5204CA068204AFC
:102E30008006400F16D0A0688006410F501001296F
:102E40000FD0A1688906490F022912D0A068800618
:102E5000400F042823D0A0688006400F032821D00B
:102E6000002010BD206801218004400F81401046E1
:102E700012E0E1688B07E1689B0F4906490F491C86
:102E8000032B00D01046FDF7FDFAE1684904490E16
:102E90004843E168490F491CFDF7F4FA10BD0120D1
:102EA000C00310BD7D20000210BD000000100240D4
:102EB0000024F400F8B504007ED020783827C0073D
:102EC000E94D002846D0A868E96838408907890F8D
:102ED000102802D008280BD001E0032908D00120D7
:102EE0006268000482420AD129680143296015E022
:102EF000286880032ED560680028DDD02AE00523ED
:102F000001211B0489049A422A6802D10A432A60DB
:102F1000EAE782432A6028688843286060680028BE
:102F20000CD0FFF7F3F9064604E0FFF7EFF9801B3A
:102F3000642873D828688003F7D50BE0FFF7E6F91B
:102F4000064604E0FFF7E2F9801B6428F1D8286800
:102F50008003F7D42078800769D5A868E9683840ED
:102F60008A070721920FC902102802D0002813D027
:102F700001E0022A10D0E068002846D02868884383
:102F80002169084328602868FF210131084328602F
:102F9000FFF7BCF906462CE02A68520502D5E26824
:102FA000002A89D06A687F231B029A4363691B0247
:102FB0001A436A60002800E08DE00ED1286888433B
:102FC000216908432860286801218004400F81405E
:102FD000A648FDF757FAA6490860A6480068FFF71B
:102FE00035FD002877D122E0FFF790F9801B0228F9
:102FF0009FD828684005F7D568687F210902884373
:10300000616909020843686011E02968FF20013006
:1030100081432960FFF77AF9064605E098E0FFF75B
:1030200075F9801B022884D828684005F7D42078D9
:10303000914E00072ED5A8688006400F03280AD0BD
:10304000A0690028306A16D0012108433062FFF7DA
:103050005DF907460BE0306A80071BD5A0690028A0
:103060009FD017E0FFF752F9C01B022870D8306AD2
:103070008007F7D50EE0400840003062FFF746F9C0
:10308000074604E0FFF742F9C01B022860D8306A07
:103090008007F7D4207840076CD5A8680027800601
:1030A000400F042818D0E86BC00008D4E96B012059
:1030B00000070143E963E96B0140012700916F4874
:1030C0000168C90519D40168821511430160FFF731
:1030D0001DF900900DE083E0F06980074AD5A068F3
:1030E00000287DD046E0FFF711F90099401A022828
:1030F0002ED862480068C005F5D5A168012910D016
:1031000004200529F16911D049084900F161F169EC
:103110008143F161A068002816D0FFF7F7F800900E
:103120000EE0F06901210843F061F3E70143F1612A
:10313000F7E7FFF7EBF80099411A5148814265D84B
:10314000F0698007F5D50EE0FFF7E0F8009007E0A2
:103150005CE0FFF7DBF80099411A4948814255D8F5
:10316000F0698007F5D4002F04D0E96B0120000737
:103170008143E963E069002873D0A9688906490F93
:1031800002294DD0012636060228286805D0B04312
:103190002860FFF7BBF804463AE0B0432860FFF729
:1031A000B5F8074604E0FFF7B1F8C01B02282DD898
:1031B00028688001F7D4616A206AA26A0843E16A3C
:1031C000120211430843216B0843E9682D4A11405C
:1031D0000843E860286830432860E868012100E07F
:1031E0003DE009070843E860FFF790F8044604E073
:1031F000FFF78CF8001B022808D828688001F7D553
:103200002FE0FFF783F8001B022801D90320F8BD47
:1032100028688001F5D4E8681B490840E86020E090
:103220000128F4D0E868226A8107890F914216D1FB
:103230007021626A0140914211D17F21A26A090284
:103240000140120291420AD11F214904E26A014061
:10325000914204D1400F216B4007884201D00120E8
:10326000F8BD0020F8BD0000001002400024F4006A
:10327000240000201C00002040100240007000408C
:10328000881300008C80C11FFCFFFEEFF8B504001E
:103290000CD0606A002500280AD0256165612646A9
:1032A0004036A562707F002808D00BE00120F8BDF1
:1032B0006168C81FFD38F2D0E561F0E73577204638
:1032C00000F05CF80222727720680168402399437D
:1032D00001600723E1681B02994201D9002001E047
:1032E000012000030F273F02B94202D0994200D0CB
:1032F000A562FF236168053319402127A368BF0237
:103300003B40194323691340227D1943D207D20F52
:1033100011430123A2695B021A401143E269382379
:103320001A401143226A80231A401143A26A9B016A
:103330001A40114322681160A1690422090C11404E
:10334000626A10231A401143626B08231A4011432A
:103350000F23E2681B021A4011430122120310409E
:103360000143206841602068C16952109143C161E6
:103370002566012070770020F8BD000010B586B0EA
:10338000044614216846FDF77BF8124920688842FC
:103390001DD11148026881140A4302600068084088
:1033A00005900D484038416B012211434163406B49
:1033B000694610400590C220009002200190002034
:1033C00002900390049005200007FEF7EBFE06B084
:1033D00010BD00000030014040100240FFB5002643
:1033E000054604464035687F81B01746012801D064
:1033F0000226A3E06168C81FFD3802D1A06800283A
:1034000024D0287F01282DD001202877FEF77EFFC9
:1034100000900298002871D0002F6FD004206877A8
:103420000020206602992164AF80EF80A063A0870E
:10343000E087E064206507210120E26809020003BB
:103440008A42226853680FD983430EE004206877CC
:1034500013460498029A00901146204600F022F983
:1034600005B0F0BD0220FBE7034353600123A068D1
:10347000DB034022984208D120680368934303602D
:10348000206803681702BB430360206803685B067B
:1034900002D4036813430360E06888421AD93AE013
:1034A00020688168C90709D0007B216C0870206CF6
:1034B000401C2064E888401EE8800BE0FEF726FFF1
:1034C0000099411A0498814202D3401C02D005E0C1
:1034D000002803D0E8880028E2D11FE003262BE073
:1034E00020688168C9070AD0C068216C0880206CF8
:1034F000801C2064E888401EE8800CE01AE0FEF79B
:1035000005FF0099411A0498814202D3401C02D061
:10351000E4E70028E2D0E8880028E1D12046009ABC
:10352000049901F078FA002801D020202066206E4E
:10353000002801D0012601E00120687700202877CB
:1035400030468DE7FFB5054604464035287F002705
:1035500081B01646012809D001202877FEF7D6FE53
:103560000090687F012804D0022797E0022005B070
:10357000F0BD0298002874D0002E72D00320687726
:10358000002020660299A163A687E6872064A880B0
:10359000E8802065E0640122A068D20340219042C7
:1035A00008D1206802688A430260206802680B0222
:1035B0001A43026020680268520602D402680A4375
:1035C00002600721E06809028842606828D9002863
:1035D00001D0012E1ED1A06B21680088C86006E0D2
:1035E00020688168890709D5A16B0988C160A06B33
:1035F000801CA063E08F401EE0870BE0FEF786FE94
:103600000099411A0498814202D3401C02D005E07F
:10361000002803D0E08F0028E2D128E003273BE018
:10362000002801D0012E1FD1A06B216800780873FB
:1036300006E020688168890709D5A16B09780173C4
:10364000A06B401CA063E08F401EE0870CE0FEF7FB
:103650005DFE0099411A0498814203D3401C03D0B7
:10366000DCE717E00028D9D0E08F0028E1D1204620
:10367000009A049901F00BFA002801D0202020665E
:10368000A068002803D12068C16880680090206E7F
:10369000002801D0012701E0012068770020287769
:1036A000384664E7FFB5044683B00120254640351F
:1036B0000090287F00271E4601280FD00120287780
:1036C000FEF724FE0190687F616801280DD0CA1FB3
:1036D000FD3A08D1A168002905D102E0022007B017
:1036E000F0BD042801D00227D4E0049800286FD050
:1036F00005980028FBD0002EF9D0687F042801D05F
:10370000052068770020206605992164EE80AE8050
:103710000499A163E687A687E0642065072101205C
:10372000E268090200038A422268536801D9834390
:1037300000E00343536020680268520603D4026825
:1037400040231A430260E0688842606848D9002834
:1037500001D0012E3DD1A06B01882068C160A06B13
:10376000801CA063E08F401EE08732E02068816803
:10377000890710D5E18F00290DD0009901290AD1C0
:10378000A16B0988C160A06B801CA063E08F401E04
:10379000E0870020009020688168C9070DD0E98883
:1037A00000290AD0C068216C0880206C801C20642D
:1037B000E888401EE88001200090FEF7A7FD0199EF
:1037C000401A0C99884204D3481C02D003275FE0BA
:1037D0005CE0E08F0028C9D1E8880028C6D148E025
:1037E000002801D0012E3ED1A06B2168007808731B
:1037F000A06B401CA063E08F401EE08733E0206890
:103800008168890710D5E18F00290DD00099012921
:103810000AD1A16B09780173A06B401CA063E08FF3
:10382000401EE0870020009020688168C9070DD005
:10383000E98800290AD0007B216C0870206C401CAC
:103840002064E888401EE88001200090FEF75EFDBD
:1038500001460198091A0C98814202D3401C02D0FB
:10386000B4E70028B2D0E08F0028C8D1E88800284B
:10387000C5D12046019A0C9901F009F9002802D01F
:10388000012720202066206E002801D0012701E0BA
:103890000120687700202877384620E7094910B5CD
:1038A000401E884201D9012010BD074C60610321F0
:1038B000081F01F0A1FC0020A0610720206100206A
:1038C00010BD0000FFFFFF0000E000E070B5040045
:1038D00005D025462035687F002802D006E001206B
:1038E00070BD00202877204600F016F80220687787
:1038F000211D206801F01EFA012240342272AA77AD
:10390000EA7722706270A270E27022716271A27115
:10391000E2716A77002070BD08B5006806498842E8
:1039200008D106480268012189040A430260006840
:103930000840009008BD00000048014040100240CF
:1039400070B5040005D025468035A868002802D04F
:1039500006E0012070BD00202871204600F026F806
:103960002420A86020680168490849000160A06A15
:10397000002802D0204601F021FA204601F012FB77
:103980000128E7D0206841680922D20291434160B2
:10399000206881682A2291438160206801680122A1
:1039A00011430160204601F06FFA70BD10B586B07A
:1039B000044614216846FCF763FD114920688842DB
:1039C0001CD11048C26B012149040A43C263C26B77
:1039D0000A400592426B01210A434263406B049105
:1039E000084005900C2000900220019000200290D9
:1039F0000390052069460007FEF7D4FB06B010BD12
:103A00000044004000100240FFB5064604468036E0
:103A1000B06883B00D46202802D0022007B0F0BD68
:103A2000002D0CD00598002809D00120A1680003C2
:103A3000814206D12069002803D1E80701D0012086
:103A4000ECE7002030612120B060FEF75FFC0190C0
:103A5000274640370598B8820598F8820120A1686A
:103A60000003814202D12069002802D0029500257E
:103A700015E00020029012E000228021204601F093
:103A800045FB002818D10298002819D02168007839
:103A900088620298401C0290F88A401EF882F88AD8
:103AA000019B002806980090E6D100224021204684
:103AB00001F02CFB00280AD02020B0600320ADE7E5
:103AC00028882168C005C00D8862AD1CE4E720206D
:103AD000B0600020A2E7FEE710B5064800688069E4
:103AE0004005400F034802D0FEF761FC10BDFEF711
:103AF0008DFC10BD2800002010B5806A0021826B6B
:103B0000002A00D09163C26B002A00D0916300F0BC
:103B1000DBFB10BDF0B504460022CE07403428235D
:103B2000B025002E05D0667842221F46B74300D04C
:103B3000F2228E0705D5442664783243A34300D091
:103B40002A43CB0B01D0B8231A43102908D02029CF
:103B500007D0402905D00068016891430160F0BD9D
:103B600090210A43F7E701688A69D243920701D49A
:103B700000228A6200688169C943C90703D081694C
:103B80000122114381617047F8B50546044640356E
:103B9000687828218143206804D00821C161002071
:103BA0002870F8BD8169C903CF0F8169FE230E0C0F
:103BB00081681E408A05C168920D19408C46E168F3
:103BC000022916D10621D3090E400B409E420FD187
:103BD000A16C491CA164A16C0229E2D10021A1645D
:103BE0000823C361297039462046FEF7DFFBF8BD84
:103BF00066460121C9032046FFF78CFF002028708C
:103C00003246F0E7F8B505460446403568780026A8
:103C1000AE703D4AE2626685626C0A43626428289F
:103C200032D0292830D02A282ED038492046FFF714
:103C300071FF2046FFF797FF6878602812D0202197
:103C4000697020688269D24392060BD48269D2439C
:103C5000D20605D41022C261606C04221043606455
:103C60002068C1616663206BA16B294F002903D0D6
:103C7000112812D0212810D0E16B002925D012285C
:103C800027D0222825D020E003212046FFF742FF3D
:103C9000282068701F486063E5E7206801684904D0
:103CA00004D501680122920391430160A06BFEF7E5
:103CB000D1F9012809D0A06B87632E70A06BFEF7A5
:103CC0008BF9002804D0A06B1AE0204600F0FCFA23
:103CD000F8BD20680168090404D501680122D203F7
:103CE00091430160E06BFEF7B5F90128EDD0E06B80
:103CF00087632E70E06BFEF76FF90028E8D0E06B69
:103D0000816B8847F8BD00000000FFFF03800000C2
:103D1000F93A00087D41000870B504461648E06293
:103D200000252563202220464030064642708570DB
:103D3000C8436563400712D42068406A616A08700E
:103D4000606A401C6062208D002808D0401E2085DB
:103D5000608D401E6085606C0421084360640749E3
:103D60002046FFF7D7FE21681020C8613570204635
:103D7000FEF7BAFB70BD00000000FFFF03800000EB
:103D8000F8B50268044610680090E66A0F462546BA
:103D9000403568782021D161212808D0292806D013
:103DA00022280AD02A2808D028280DD013E06149FB
:103DB0002046FFF7AFFE21200CE05E492046491C5B
:103DC000FFF7A8FE222005E05A492046891CFFF78C
:103DD000A1FE00202063206841680122D203114324
:103DE000416020684168544A114041602046FFF715
:103DF000BAFE0098C243500407D42068016801232A
:103E00009B0399430160A06B08E010040BD4206869
:103E100001680123DB0399430160E06B002802D0B5
:103E2000006840686085F8434007042100280FDBE4
:103E300020688F43406A636A1870606A401C606241
:103E4000208D002804D0401E2085608D401E608596
:103E5000608D002802D0606C08436064F843C0069F
:103E600014D4D00612D4628D1020002A20D02268EB
:103E7000D061606C08436064002E03D0012000060E
:103E8000864203D1616C2046FFF7BCFE0026AE706F
:103E90006663606C00282AD0616C2046FFF7B2FE92
:103EA0006878282803D139462046FFF735FFF8BD4A
:103EB0006978282908D1012149068E4204D1394662
:103EC0002046FFF729FFE1E7697829290CD1012174
:103ED0000904CE4208D02168C8612046FFF743FE9E
:103EE000204600F02DF8D1E72168C861CEE7E06AEE
:103EF000124FB8420BD0204600F022F8E762202093
:103F0000687026632E702046FEF7EEFAF8BD6878DA
:103F1000222807D02020687026632E702046FEF7E6
:103F20003AFDF8BD2020687026632E702046FEF70B
:103F300031FDF8BD0180000000E800FE0000FFFF39
:103F400070B505460068016800262C464034A6700E
:103F5000C9434A0403D401680122920304E009041E
:103F600004D401680122D2039143016061782820C2
:103F700029290ED061782A290AD16070222028636D
:103F800002212846FFF7C6FD26702846FEF702FDEF
:103F900070BD60702120286301212846FFF7BAFD1B
:103FA00026702846FEF7F7FC70BD0000F7B5044602
:103FB000006882B0816900262746C9064037354629
:103FC0000092002945DA1021C16132E00398401CBB
:103FD0002FD0FEF79BF90099411A0398814201D82E
:103FE000002826D120684168012292031140BA7846
:103FF0008369DB431B0417D401239B03994213D02D
:10400000202A11D0416819434160FEF77FF90090E2
:104010000AE0FEF77BF901460098081A192803D92F
:1040200020200543012604E020688069C043800603
:10403000EFD420688069C043800602D5002EC5D029
:1040400004E0002E02D121682020C861042005432D
:10405000012621688869C20504D501221543120290
:10406000CA610126410508D508210D43CA0121680E
:10407000CA610126800502D40AE0800506D5022027
:10408000054321680002C861012601E0002E0FD01F
:104090002046FFF768FD20684168074A11404160EB
:1040A000606C28436064202078700020B8703870FD
:1040B000304605B0F0BD000000E800FEF8B504464B
:1040C000164615481D46DAB20090079F0023204689
:1040D00000F0E4F83A462046069900F06CF9002812
:1040E00018D12846F5B2012809D02168300A886223
:1040F0003A462046069900F05EF900280AD1206869
:1041000085620097002240212046069B00F0EFF8D0
:10411000002800D00120F8BD00200080F8B504463A
:10412000164615481D46DAB2C3020090079F204686
:1041300000F0B4F83A462046069900F03CF9002811
:1041400018D12846F5B2012809D02168300A8862C2
:104150003A462046069900F02EF900280AD1206838
:1041600085620097002280212046069B00F0BFF860
:10417000002800D00120F8BD00200080F8B50446DA
:10418000C06A254640352B78012B0CD001232B70BB
:10419000CB439E06D243002E07DB960605D420466D
:1041A000FFF7EEFD74E00220F8BD3B4EDF062FD492
:1041B000D7062DD4638D1022002B0ED02168CA6142
:1041C000616C042211436164002801D0B0425FD1C8
:1041D000616C2046FFF716FD5AE06B78282B07D15B
:1041E00001235B06984203D12046FFF795FD4FE07F
:1041F0006978292909D101210904C84205D020681C
:10420000C2612046FFF7AFFC3FE02068C2613FE09B
:104210005F0719D4570717D4618D00290CD0216886
:10422000496A626A1170616A491C6162218D491E86
:104230002185618D491E6185618D002928D101216B
:104240000904C84221D123E01F0705D4170703D46E
:104250002046FFF799FC1BE0990719D4910717D462
:10426000618D00290DD0606A216800788862606ADB
:10427000401C6062608D401E6085208D401E208540
:1042800006E0B04201D0002802D12046FFF758FED8
:1042900000202870F8BD000000000001890510B55D
:1042A000890D12041143029C1943026821434900FD
:1042B00050684908630D034C2343984308435060FA
:1042C00010BD0000FF63FF0310B5014640314B787D
:1042D0000022602B04D002630A70FEF79FF810BD25
:1042E00020234B7002630A70FEF75FF810BDF8B52B
:1042F0001D4617460E46044626E029462046069AE5
:10430000FFF754FE002801D00120F8BD681C1BD027
:10431000FDF7FCFF0699401AA84201D8002D13D1E1
:1043200020688169304688430CD00020B8420BD108
:10433000616C202001436164403460700020A070F3
:104340002070E1E70120F1E7206881693046884369
:1043500004D00020B842D0D00020F8BD0120F9E7F9
:1043600070B516460D4604461EE0324629462046E4
:10437000FFF71CFE002801D0012070BDFDF7C6FF2D
:10438000801BA84201D8002D0ED120688069C0434F
:10439000800609D5616C202001436164403460705F
:1043A0000020A0702070E7E720688069C043800685
:1043B000DBD4002070BD70B516460D46044620E0E3
:1043C000324629462046FFF7F1FD002801D00120A2
:1043D00070BD681C15D0FDF799FF801BA84201D85D
:1043E000002D0ED120688069C043800709D5616C1B
:1043F000202001436164403460700020A070207070
:10440000E5E720688069C0438007D9D4002070BDEB
:1044100070B586B00E4604AA00257D240092E40003
:10442000022101AB049532C34100012332463748D3
:10443000FEF7F8F8002807D023460E2234A13848AA
:10444000FFF7E2FA06B070BD6846008A354C012ECF
:1044500040BA1DD0042E2ED0022E3FD0032EF1D113
:1044600019214843FCF7BAFA616801F00BF9606161
:10447000FCF746FA02460B462BA103A80095FBF772
:10448000ABFE082303AA0321402000F0A8FAD9E7D5
:10449000401EC04380B2FCF70CF9264A264BFCF7BD
:1044A0000BF9FCF79FF8A060FCF72AFA0B460246CE
:1044B00022A1009521E0FCF791FA616801F0E2F891
:1044C0002061FCF71DFA02460B461FA103A80095C8
:1044D000FBF782FE082303AA032114E0FCF7E9F8A6
:1044E0001C4A1D4BFCF7E8F8FCF77CF8E060FCF791
:1044F00007FA0B46024619A1009503A8FBF76CFECC
:10450000082303AA02210020BFE7000028000020A2
:104510004661696C20746F20726561640D0A000049
:104520003C01002000000020503A252E3366256310
:1045300000000000F168E388B5F8C43E56533A2005
:104540002566256300000000493A252E3366256361
:10455000000000007B14AE47E17A543F563A252E06
:10456000336625630000000030B587B0142168462B
:10457000FBF786FF1A48426B02210A434263426BF3
:104580000A400592416B012421434163406B05259C
:1045900020402D070590002220212846FDF7B0FE7F
:1045A0000194202000240090029469462846039438
:1045B000FDF7F8FD09200002009011200004019091
:1045C000694602942846FDF7EDFD002211460720BA
:1045D000FEF79AFA0720FEF78BFA07B030BD00000D
:1045E0000010024010B513481149016012494160A2
:1045F000002181600161416181610122C161C2606C
:104600000162FDF713FF002801D0FDF7D9FC00215E
:104610000848FDF781FE002801D0FDF7D1FC0021FC
:104620000448FDF79EFE002801D0FDF7C9FC10BD2F
:104630000054004028000020BC7D701010B50848D0
:1046400006490160022141600649C1608160FEF7B0
:10465000A3F9002801D0FDF7B3FC10BD00300040E5
:104660007C000020FF0F000010B511480F490160C9
:10467000FF210531416007221202C26000218160E2
:104680000222026101224261520282610162182209
:104690004162C261816207220163C2624163FEF727
:1046A000F5FD002801D0FDF78BFC10BD0030014066
:1046B0008C00002010B50A48084901603F21416084
:1046C000002181600161074A4161C2608161FFF799
:1046D000FDF8002801D0FDF773FC10BD0048014033
:1046E000F0000020FFFF000010B50D480B490160ED
:1046F000E1214902416000218160C1600161816165
:10470000C16101620C22416242618162FFF718F9C6
:10471000002801D0FDF754FC10BD0000004400400B
:104720003C010020FEE770B500242046B030C0B246
:1047300000F09CFA002000F099FA102000F096FAA0
:104740000025002000F0A4FA6D1CEDB2802DF8D3F6
:10475000641CE4B2082CE8D370BD000070B50124DD
:10476000314DE403002221462846FDF7C9FD6420AF
:10477000FDF774FC012221462846FDF7C1FDAE205D
:1047800000F074FAD52000F071FA802000F06EFA83
:10479000A82000F06BFA1F2000F068FAD32000F088
:1047A00065FA002000F062FA402000F05FFA8D20E8
:1047B00000F05CFA142000F059FAA12000F056FA3B
:1047C000C82000F053FADA2000F050FA022000F07E
:1047D0004DFA812000F04AFAFF2000F047FA00204D
:1047E00000F044FA102000F041FAB02000F03EFA48
:1047F000D92000F03BFAF12000F038FADB2000F07D
:1048000035FA302000F032FAD82000F02FFA0520D7
:1048100000F02CFAA62000F029FA6420FDF71EFC17
:10482000AF2000F023FA70BD0008005010B5044618
:10483000B031C8B200F01AFA2009103000F016FAB0
:104840002007000F00F012FA10BDFFB581B01E4620
:1048500017460C460198FFF7E9FF0025F801861975
:10486000705D00F015FA6D1CEDB2202DF8D3601CC0
:10487000C1B20198FFF7DAFF0025701920300078E7
:1048800000F006FA6D1CEDB2202DF6D3A01CC1B2CB
:104890000198FFF7CBFF002570194030007800F039
:1048A000F7F96D1CEDB2202DF6D3E41CE1B20198AE
:1048B000FFF7BCFF002430196030007800F0E8F901
:1048C000641CE4B2202CF6D305B0F0BDFFB581B076
:1048D000203A019800240D46D6B27F2803D9002043
:1048E0008D1CEDB20190102B29460ED0FFF79EFFD4
:1048F0000620464313483518285D00F0C9F9641CAA
:10490000E4B2062CF8D305B0F0BDFFF78FFF3701F6
:104910000D4E3819305C00F0BBF9641CE4B2082C71
:10492000F7D36D1CE9B20198FFF780FF0024381916
:104930008019007A00F0ACF9641CE4B2082CF6D3BC
:10494000E1E70000445700086C590008FFB581B04A
:104950001D4617460E460198FFF768FF00243801F0
:104960004519285D00F094F9641CE4B2082CF8D3D2
:10497000761CF1B20198FFF759FF00242819007A3C
:1049800000F086F9641CE4B2082CF7D305B0F0BD42
:10499000F7B50024009821010F18F8B20199FFF72C
:1049A00045FF0299002560014618705D00F070F91E
:1049B0006D1CEDB2102DF8D30198401CC1B2F8B2B5
:1049C000FFF734FF00257019007C00F061F96D1CC1
:1049D000EDB2102DF7D3641C032CDBDBFEBDFFB55D
:1049E00081B017460E46044600250DE031462046AC
:1049F000049BFFF76BFF0834E4B2782C02D9002443
:104A0000B61CF6B26D1CEDB27A5D002AEED105B08F
:104A1000F0BD70477047F7B504464068FF2605367D
:104A200082B01546B0420CD10121A068C90388426A
:104A300002D04911884204D1206801684022914384
:104A400001600095002280212046039B00F0B2F80F
:104A50002027002813D16068B04216D1A068B9029F
:104A6000884202D0491188420FD1032100950022CB
:104A700049022046039B00F031F8002805D0206E43
:104A800038432066032005B0F0BD0020FBE7F8B5F1
:104A90000F460B4615460092032104460022C90228
:104AA00000F01CF82026002812D13B46002280216D
:104AB0002046009500F07EF8002809D103213B46EE
:104AC000002249022046009500F008F8002803D093
:104AD000206E304320660320F8BD0000FFB585B08E
:104AE0000E460446002069460E9D17460871FDF7E4
:104AF0000DFC411B0898451AFDF708FC039020683F
:104B000023210C3002902A4800684843000D684376
:104B100046E003204002864206D1002F04D10298CD
:104B200001786846017100790898401C39D0FDF77A
:104B3000EDFB0399401AA84205D2002D03D000983E
:104B400000282BD02BE020684168E022914341608F
:104B50006068C11FFD390CD10121A068C9038842DA
:104B600002D04911884204D1206801684022914353
:104B700001600120A16A4003814207D121680A68CF
:104B800082430A6021680A6802430A6001204034B7
:104B9000607700202077032009B0F0BD0025401E7B
:104BA0000090206880683040B842B2D10020F3E71E
:104BB00024000020FFB581B01E4604460A9DFDF783
:104BC000A5FB401B351AFDF7A1FB074626480068E8
:104BD0004001000D684339E0701C38D0FDF796FBAA
:104BE000C01BA84205D2002D03D0009800282BD06E
:104BF0002BE020684168E022914341606068C11F5A
:104C0000FD390CD10121A068C903884202D04911A5
:104C1000884204D12068016840229143016001204C
:104C2000A16A4003814207D121680A6882430A6071
:104C300021680A6802430A6001204034607700203E
:104C40002077032005B0F0BD0025401E00902068AD
:104C500081680298884305D0002103988142BBD126
:104C60000020EFE70121F8E7240000201CB5002216
:104C700069460A714871FF20F5300090022301AAAD
:104C800078210248FDF732FC1CBD000028000020FE
:104C90001CB5402269460A714871FF20F53000902A
:104CA000022301AA78210248FDF720FC1CBD000068
:104CB00028000020704710B5FDF7ACFE10BD30B5E0
:104CC00091B034216846FBF7DBFB002401200D94F2
:104CD0000E940F9440021094FDF71AFF0A200090E2
:104CE000FF2001300390402005900120069008200D
:104CF0000A90022580030B900795000304940C9002
:104D0000089509946846FEF7D5F8002801D072B6D8
:104D1000FEE707200D900F9402210E9510940DA828
:104D2000FDF7C2FF002801D072B6FEE711B030BD1A
:104D30007047000070B502681B4B1C4E984201D0B2
:104D4000B04203D17024A2434C682243184C194D41
:104D5000984208D0B04206D0174EB04203D0A042CD
:104D600001D0A84204D103263602B243CE683243B2
:104D70008026B2434E69324302608A68C2620A6882
:104D80008262984203D0A04201D0A84201D10969B1
:104D90000163012141610169C90703D00169490823
:104DA0004900016170BD0000002C0140000400407A
:104DB00000440140004801400020004010B5018D32
:104DC000090707D501684A680123DB039A43836B0F
:104DD0001A434A60018DC90707D001684A68012358
:104DE0005B049A43C36A1A434A60018D890707D559
:104DF00001684A6801231B049A43036B1A434A6003
:104E0000018D490707D501684A6801239B049A432D
:104E1000436B1A434A60018DC90607D50268916841
:104E200001231B039943C36B19439160018D8906CC
:104E300007D501688A6801235B039A43036C1A4310
:104E40008A60018D490612D503685A680121090557
:104E5000446C8A4322435A60426C8A4207D10268FA
:104E6000516803235B059943836C19435160018D9D
:104E7000090607D501684A680123DB04C06C9A4320
:104E800002434A6010BD0000FEB50546002680358D
:104E900004462E61FDF73AFA019020680068202749
:104EA0000007002817DA2548009000223904204620
:104EB000019B00F02BF900280DD0EFF310800121A9
:104EC00081F3108821680A6880239A430A6080F37E
:104ED0001088AF6028E020680068400727D5174891
:104EE00000900121002289052046019B00F00EF967
:104EF00000281CD0EFF31080012181F31088216875
:104F00000A68FF2321339A430A6080F31088EFF385
:104F10001080012181F3108821688A6852085200AC
:104F20008A6080F31088EF602E710320FEBDAF60B1
:104F3000EF60E66626672E710020FEBDFFFFFF01D1
:104F400010B5EFF31081012282F310880268136814
:104F5000FF242134A343136081F31088EFF3108101
:104F6000012282F31088026893680D4C23409360FD
:104F700081F31088C16E01290BD1EFF3108101225A
:104F800082F31088026813681024A343136081F32E
:104F9000108820228C210A500021C166416710BD73
:104FA000FEFFFFEFF8B5044680682169E269084317
:104FB0006169002511432268084311684B4B194071
:104FC0000143116020684168032212039143E268A3
:104FD00011434160A169206A084321688A68444BF3
:104FE0001A4002438A602068C16A626A090909019D
:104FF0001143C1623F492068884211D13E4840694F
:105000008007800F0FD0012806D0022802D0032885
:105010000BD103E0022109E0042107E0082105E0AB
:105020003649884201D1002100E010210120E369C6
:10503000C003334A334E344F834227D1002906D070
:10504000022907D0042907D008293FD108E0FDF73D
:10505000D7FE03E0104603E0FDF7E6FE00283AD055
:10506000616A4900715AFBF70DFA616840004A080D
:105070008018FBF707FA01461039B94226D82249B1
:10508000491C01400007400F084322E0002906D0D8
:10509000022907D0042907D0082917D108E0FDF715
:1050A000AFFE03E0104603E0FDF7BEFE002812D07D
:1050B000616A4900715AFBF7E5F961684A0880188E
:1050C000FBF7E0F901461039B94201D9012502E0A8
:1050D00080B22168C86020460121403041850185A9
:1050E00000206067A0672846F8BD0000F369FFCF85
:1050F000FFF4FF110038014040100240004400401E
:105100000024F400EC640008EFFF0000FFB581B05C
:1051100005460E46044680350A9F32E0781C30D0A2
:10512000FDF7F4F80499401AB84218D8002F16D0A9
:1051300020680168490724D5802E22D0402E20D037
:10514000C169C94309070CD4082606622046FFF747
:10515000F7FE2E6100202871012005B0F0BD03206C
:10516000FBE7C069C04300050BD401202168C002E1
:1051700008622046FFF7E4FE202028610020287105
:10518000EDE72068C1693046884305D000210398C7
:105190008142C3D00020E0E70121F8E7F8B5040C14
:1051A0008BB2264682B25E43104658430D0C370C34
:1051B000360400218019164679416E43370C3604B7
:1051C0008019264679416E438919F8BD4900CA0203
:1051D0000243100000D004204A0D01D001221043E8
:1051E000044A490D914201D102210843012800D10E
:1051F00005207047FF0700008307FF22DB0E9A405F
:105200008907090E9940002808DB830809489B009C
:105210001B18186890430843186070470007000F78
:105220000838830804489B001B18D869904308433A
:10523000D861704700E400E000ED00E030380A2853
:1052400001D2012070470020704700008AB007207B
:105250004007854900F04CF9FBF7C4F9FBF77AFBEE
:105260000446000A694608734C73142104A8FBF72E
:1052700007F9A2B27DA104A8FAF7AEFFFDF7D2FBB1
:10528000FFF71DFDFFF770F9FFF7ACF9FFF7ECF939
:10529000FFF710FAFFF728FAFFF7D0F9FFF75EFAE9
:1052A000FFF741FA0021082373A20846FFF797FB96
:1052B000002460011030E2B2C0B2704B0021FFF751
:1052C000C4FA6F48FDF79EFB641C032CF1DB6D4CA8
:1052D0002046FCF7C3FEFFF726FA002108236AA246
:1052E0000846FFF77CFB694A00211020FFF750FBBE
:1052F000674A00215020FFF74BFB664A022110202D
:10530000FFF746FB644A02215020FFF741FB5C484F
:10531000FDF778FB2046FCF7A1FEFFF704FA01E059
:10532000FDF770FBFCF7F2FC01285548F8D0FDF7BB
:1053300069FBFFF7F8F97D20C00003A90226009160
:10534000029001230522019680215448FDF714FAAA
:10535000FF27F53700280ED100210A2350A2084666
:10536000FFF73DFB0A2304AA01210020FFF737FBCA
:105370003846FCF773FE4E4C206A4E4D800008D52F
:1053800000210A234CA20846FFF729FB0A234EA25C
:1053900007E000210A2348A20846FFF720FB0A2362
:1053A0004CA201210020FFF71AFB206A284320624B
:1053B0003846FCF753FE3248FDF724FB0024E00694
:1053C000000E484B22460021FFF7C0FA641CE4B2ED
:1053D0000C2CF4D32A48FDF715FB434D01272F7001
:1053E00027E0687801280ED1FFF79DF90024E00638
:1053F000000E3E4B22460021FFF7A8FA641CE4B2DF
:105400000D2CF4D36E70FCF749FD21E001281FD16B
:10541000687802280ED1FFF786F90024E006000E16
:10542000304B22460021FFF791FA641CE4B20C2CA9
:10543000F4D36F7002214020FEF7EAFF04214020E0
:10544000FEF7E6FF03214020FEF7E2FFFCF7CCFC6D
:1054500004A93020FCF7FCFC0948FDF7D3FA2878B2
:105460000228D3D1BDE70000FFFF8F4076616C7545
:10547000653A20256400000042790000EC610008D4
:105480007C000020DC050000546F00002C64000844
:105490008C6400086C630008CC63000828000020BE
:1054A0004144432063616C69627261746564000009
:1054B00040100240000080004E52535420534F557C
:1054C000524345202020000049574447207265730D
:1054D000657400004E525354207265736574202029
:1054E000202000005C600008000000201C61000813
:1054F000F0B513B406460199FBF7CCFE04460D4601
:1055000002460B4630460199FBF7A1FE064601987C
:105510001B4B0F4600280CDA0022304600F04CF8F6
:105520000CD90022174B3046394600F077F81DD2CF
:1055300014E00022304600F03FF808D20022124B5F
:1055400020462946FBF783FE04460D460EE0002266
:105550000C4B3046394600F061F807D800220A4B60
:1055600020462946FBF766FE04460D46019A69006F
:105570004908D20FD2072046114303B0F0BD000006
:105580000000E0BF0000E03F0000F03F10B5002940
:105590000AD00878002807D005487844FCF718FBA3
:1055A000002801D0002010BD0248784410BD000042
:1055B0007E1000007610000070B501250C002D054E
:1055C0001C4310D4EC4206D4AC420AD4994200D019
:1055D00070BD904270BDE94217D4EB4215D4994298
:1055E00070BD894270BDEC4206D5AC42F9D58B4204
:1055F00000D070BD824270BD6D004C00EC4204D200
:105600005C00EC4201D28B4270BD034C30B4FCF71D
:105610006BFA30BC70BD00BF1900160470B50125CF
:105620001C002D050C4310D4EC4206D4AC420AD425
:105630008B4200D070BD824270BDEB4217D4E9426C
:1056400015D48B4270BD9B4270BDEC4206D5AC4276
:10565000F9D5994200D070BD904270BD6D005C00DC
:10566000EC4204D24C00EC4201D2994270BD0FB41E
:10567000034C0CBC03BC30B4FCF736FA30BC70BD34
:105680001900160470B5420064414B005C41120ED3
:1056900039D01B0E38D0FF2A3CD0FF2B3AD0400225
:1056A0004902400A490A060045184E43000A090A01
:1056B000D2184843ED017F3A0104731A4019190CBE
:1056C0004318990F04D001215B0849075B1A521C4B
:1056D000D80904D3401CF50301D19D0607D0FF2A49
:1056E00008D2D50506D0E4072043401970BD012536
:1056F000A843F4E7002A01DCE00770BD2402FF2084
:105700002043C00570BD1B0EFF2A03D0FF2B01D024
:10571000E00770BDFF2645003606B54206D84D00AD
:10572000B54203D8D218FF2A00D0E7E7004870BD81
:105730000000C07F03B402487844844603BC60473D
:10574000F7B4FFFF0000000000000000002F000081
:1057500000000700070000147F147F1400242A7F34
:105760002A120062640813230036495522500000B3
:105770000503000000001C224100000041221C0023
:105780000014083E08140008083E0808000000A0A5
:1057900060000008080808080000606000000020A1
:1057A00010080402003E5149453E0000427F40007F
:1057B000004261514946002141454B310018141205
:1057C0007F10002745454539003C4A4949300001D2
:1057D0007109050300364949493600064949291E21
:1057E0000000363600000000563600000008142283
:1057F0004100001414141414000041221408000283
:105800000151090600324959513E007C1211127CA7
:10581000007F49494936003E41414122007F4141D4
:10582000221C007F49494941007F09090901003EC6
:105830004149497A007F0808087F0000417F410004
:10584000002040413F01007F08142241007F40407A
:105850004040007F020C027F007F0408107F003E62
:105860004141413E007F09090906003E4151215E48
:10587000007F091929460046494949310001017F45
:105880000101003F4040403F001F2040201F003FDB
:105890004038403F0063140814630007087008078D
:1058A00000615149454300007F41410000552A55A0
:1058B0002A55000041417F0000040201020400401B
:1058C000404040400000010204000020545454783D
:1058D000007F48444438003844444420003844445D
:1058E000487F00385454541800087E0901020018FB
:1058F000A4A4A47C007F080404780000447D400038
:10590000004080847D00007F102844000000417F1B
:105910004000007C04180478007C080404780038F7
:105920004444443800FC242424180018242418FC7F
:10593000007C0804040800485454542000043F44E8
:105940004020003C4040207C001C2040201C003CAB
:105950004030403C004428102844001CA0A0A07CFB
:10596000004464544C441414141414140000000033
:10597000000000000000000000000000000000F82F
:1059800000000000000000333000000000100C0692
:10599000100C0600000000000000000040C078402D
:1059A000C0784000043F04043F040400007088FCF9
:1059B00008300000001820FF211E0000F008F00051
:1059C000E018000000211C031E211E0000F00888C2
:1059D000700000001E2123241927211010160E002C
:1059E000000000000000000000000000000000E0D7
:1059F00018040200000000071820400000020418EC
:105A0000E00000000040201807000000404080F047
:105A1000804040000202010F01020200000000F07D
:105A2000000000000101011F010101000000000051
:105A30000000000080B070000000000000000000C6
:105A4000000000000001010101010101000000004F
:105A500000000000003030000000000000000000E6
:105A600080601804006018060100000000E01008C3
:105A70000810E000000F102020100F00001010F898
:105A8000000000000020203F2020000000700808D7
:105A90000888700000302824222130000030088857
:105AA000884830000018202020110E000000C0207F
:105AB00010F8000000070424243F240000F80888A0
:105AC000880808000019212020110E0000E010882D
:105AD00088180000000F112020110E00003808085F
